{
  "_format": "hh-sol-artifact-1",
  "contractName": "ERCX",
  "sourceName": "contracts/ERCX.sol",
  "abi": [
    {
      "inputs": [
        {
          "internalType": "string",
          "name": "name_",
          "type": "string"
        },
        {
          "internalType": "string",
          "name": "symbol_",
          "type": "string"
        }
      ],
      "stateMutability": "nonpayable",
      "type": "constructor"
    },
    {
      "anonymous": false,
      "inputs": [
        {
          "indexed": true,
          "internalType": "address",
          "name": "owner",
          "type": "address"
        },
        {
          "indexed": true,
          "internalType": "address",
          "name": "approved",
          "type": "address"
        },
        {
          "indexed": true,
          "internalType": "uint256",
          "name": "tokenId",
          "type": "uint256"
        }
      ],
      "name": "Approval",
      "type": "event"
    },
    {
      "anonymous": false,
      "inputs": [
        {
          "indexed": true,
          "internalType": "address",
          "name": "owner",
          "type": "address"
        },
        {
          "indexed": true,
          "internalType": "address",
          "name": "operator",
          "type": "address"
        },
        {
          "indexed": false,
          "internalType": "bool",
          "name": "approved",
          "type": "bool"
        }
      ],
      "name": "ApprovalForAll",
      "type": "event"
    },
    {
      "anonymous": false,
      "inputs": [
        {
          "indexed": true,
          "internalType": "address",
          "name": "user",
          "type": "address"
        },
        {
          "indexed": true,
          "internalType": "address",
          "name": "approved",
          "type": "address"
        },
        {
          "indexed": true,
          "internalType": "uint256",
          "name": "tokenId",
          "type": "uint256"
        }
      ],
      "name": "ApprovalUser",
      "type": "event"
    },
    {
      "anonymous": false,
      "inputs": [
        {
          "indexed": true,
          "internalType": "address",
          "name": "from",
          "type": "address"
        },
        {
          "indexed": true,
          "internalType": "address",
          "name": "to",
          "type": "address"
        },
        {
          "indexed": true,
          "internalType": "uint256",
          "name": "tokenId",
          "type": "uint256"
        }
      ],
      "name": "Transfer",
      "type": "event"
    },
    {
      "anonymous": false,
      "inputs": [
        {
          "indexed": false,
          "internalType": "address",
          "name": "from",
          "type": "address"
        },
        {
          "indexed": false,
          "internalType": "address",
          "name": "to",
          "type": "address"
        },
        {
          "indexed": false,
          "internalType": "uint256",
          "name": "tokenId",
          "type": "uint256"
        }
      ],
      "name": "TransferUser",
      "type": "event"
    },
    {
      "inputs": [
        {
          "internalType": "address",
          "name": "to",
          "type": "address"
        },
        {
          "internalType": "uint256",
          "name": "tokenId",
          "type": "uint256"
        }
      ],
      "name": "approve",
      "outputs": [],
      "stateMutability": "nonpayable",
      "type": "function"
    },
    {
      "inputs": [
        {
          "internalType": "address",
          "name": "to",
          "type": "address"
        },
        {
          "internalType": "uint256",
          "name": "tokenId",
          "type": "uint256"
        }
      ],
      "name": "approveUser",
      "outputs": [],
      "stateMutability": "nonpayable",
      "type": "function"
    },
    {
      "inputs": [
        {
          "internalType": "address",
          "name": "owner",
          "type": "address"
        }
      ],
      "name": "balanceOf",
      "outputs": [
        {
          "internalType": "uint256",
          "name": "",
          "type": "uint256"
        }
      ],
      "stateMutability": "view",
      "type": "function"
    },
    {
      "inputs": [
        {
          "internalType": "address",
          "name": "user",
          "type": "address"
        }
      ],
      "name": "balanceOfUser",
      "outputs": [
        {
          "internalType": "uint256",
          "name": "",
          "type": "uint256"
        }
      ],
      "stateMutability": "view",
      "type": "function"
    },
    {
      "inputs": [
        {
          "internalType": "uint256",
          "name": "tokenId",
          "type": "uint256"
        }
      ],
      "name": "getApproved",
      "outputs": [
        {
          "internalType": "address",
          "name": "",
          "type": "address"
        }
      ],
      "stateMutability": "view",
      "type": "function"
    },
    {
      "inputs": [
        {
          "internalType": "uint256",
          "name": "tokenId",
          "type": "uint256"
        }
      ],
      "name": "getApprovedUser",
      "outputs": [
        {
          "internalType": "address",
          "name": "",
          "type": "address"
        }
      ],
      "stateMutability": "view",
      "type": "function"
    },
    {
      "inputs": [
        {
          "internalType": "address",
          "name": "owner",
          "type": "address"
        },
        {
          "internalType": "address",
          "name": "operator",
          "type": "address"
        }
      ],
      "name": "isApprovedForAll",
      "outputs": [
        {
          "internalType": "bool",
          "name": "",
          "type": "bool"
        }
      ],
      "stateMutability": "view",
      "type": "function"
    },
    {
      "inputs": [],
      "name": "name",
      "outputs": [
        {
          "internalType": "string",
          "name": "",
          "type": "string"
        }
      ],
      "stateMutability": "view",
      "type": "function"
    },
    {
      "inputs": [
        {
          "internalType": "uint256",
          "name": "tokenId",
          "type": "uint256"
        }
      ],
      "name": "ownerOf",
      "outputs": [
        {
          "internalType": "address",
          "name": "",
          "type": "address"
        }
      ],
      "stateMutability": "view",
      "type": "function"
    },
    {
      "inputs": [
        {
          "internalType": "address",
          "name": "from",
          "type": "address"
        },
        {
          "internalType": "address",
          "name": "to",
          "type": "address"
        },
        {
          "internalType": "uint256",
          "name": "tokenId",
          "type": "uint256"
        }
      ],
      "name": "safeTransferAllFrom",
      "outputs": [],
      "stateMutability": "nonpayable",
      "type": "function"
    },
    {
      "inputs": [
        {
          "internalType": "address",
          "name": "from",
          "type": "address"
        },
        {
          "internalType": "address",
          "name": "to",
          "type": "address"
        },
        {
          "internalType": "uint256",
          "name": "tokenId",
          "type": "uint256"
        },
        {
          "internalType": "bytes",
          "name": "_data",
          "type": "bytes"
        }
      ],
      "name": "safeTransferAllFrom",
      "outputs": [],
      "stateMutability": "nonpayable",
      "type": "function"
    },
    {
      "inputs": [
        {
          "internalType": "address",
          "name": "from",
          "type": "address"
        },
        {
          "internalType": "address",
          "name": "to",
          "type": "address"
        },
        {
          "internalType": "uint256",
          "name": "tokenId",
          "type": "uint256"
        }
      ],
      "name": "safeTransferFrom",
      "outputs": [],
      "stateMutability": "nonpayable",
      "type": "function"
    },
    {
      "inputs": [
        {
          "internalType": "address",
          "name": "from",
          "type": "address"
        },
        {
          "internalType": "address",
          "name": "to",
          "type": "address"
        },
        {
          "internalType": "uint256",
          "name": "tokenId",
          "type": "uint256"
        },
        {
          "internalType": "bytes",
          "name": "_data",
          "type": "bytes"
        }
      ],
      "name": "safeTransferFrom",
      "outputs": [],
      "stateMutability": "nonpayable",
      "type": "function"
    },
    {
      "inputs": [
        {
          "internalType": "address",
          "name": "from",
          "type": "address"
        },
        {
          "internalType": "address",
          "name": "to",
          "type": "address"
        },
        {
          "internalType": "uint256",
          "name": "tokenId",
          "type": "uint256"
        },
        {
          "internalType": "bytes",
          "name": "_data",
          "type": "bytes"
        }
      ],
      "name": "safeTransferUserFrom",
      "outputs": [],
      "stateMutability": "nonpayable",
      "type": "function"
    },
    {
      "inputs": [
        {
          "internalType": "address",
          "name": "from",
          "type": "address"
        },
        {
          "internalType": "address",
          "name": "to",
          "type": "address"
        },
        {
          "internalType": "uint256",
          "name": "tokenId",
          "type": "uint256"
        }
      ],
      "name": "safeTransferUserFrom",
      "outputs": [],
      "stateMutability": "nonpayable",
      "type": "function"
    },
    {
      "inputs": [
        {
          "internalType": "address",
          "name": "operator",
          "type": "address"
        },
        {
          "internalType": "bool",
          "name": "approved",
          "type": "bool"
        }
      ],
      "name": "setApprovalForAll",
      "outputs": [],
      "stateMutability": "nonpayable",
      "type": "function"
    },
    {
      "inputs": [
        {
          "internalType": "bytes4",
          "name": "interfaceId",
          "type": "bytes4"
        }
      ],
      "name": "supportsInterface",
      "outputs": [
        {
          "internalType": "bool",
          "name": "",
          "type": "bool"
        }
      ],
      "stateMutability": "view",
      "type": "function"
    },
    {
      "inputs": [],
      "name": "symbol",
      "outputs": [
        {
          "internalType": "string",
          "name": "",
          "type": "string"
        }
      ],
      "stateMutability": "view",
      "type": "function"
    },
    {
      "inputs": [
        {
          "internalType": "uint256",
          "name": "tokenId",
          "type": "uint256"
        }
      ],
      "name": "tokenURI",
      "outputs": [
        {
          "internalType": "string",
          "name": "",
          "type": "string"
        }
      ],
      "stateMutability": "view",
      "type": "function"
    },
    {
      "inputs": [
        {
          "internalType": "address",
          "name": "from",
          "type": "address"
        },
        {
          "internalType": "address",
          "name": "to",
          "type": "address"
        },
        {
          "internalType": "uint256",
          "name": "tokenId",
          "type": "uint256"
        }
      ],
      "name": "transferFrom",
      "outputs": [],
      "stateMutability": "nonpayable",
      "type": "function"
    },
    {
      "inputs": [
        {
          "internalType": "uint256",
          "name": "tokenId",
          "type": "uint256"
        }
      ],
      "name": "userOf",
      "outputs": [
        {
          "internalType": "address",
          "name": "",
          "type": "address"
        }
      ],
      "stateMutability": "view",
      "type": "function"
    }
  ],
  "bytecode": "0x60806040523480156200001157600080fd5b506040516200356238038062003562833981810160405281019062000037919062000197565b818181600090805190602001906200005192919062000075565b5080600190805190602001906200006a92919062000075565b50505050506200033b565b8280546200008390620002a7565b90600052602060002090601f016020900481019282620000a75760008555620000f3565b82601f10620000c257805160ff1916838001178555620000f3565b82800160010185558215620000f3579182015b82811115620000f2578251825591602001919060010190620000d5565b5b50905062000102919062000106565b5090565b5b808211156200012157600081600090555060010162000107565b5090565b60006200013c62000136846200023e565b6200020a565b9050828152602081018484840111156200015557600080fd5b6200016284828562000271565b509392505050565b600082601f8301126200017c57600080fd5b81516200018e84826020860162000125565b91505092915050565b60008060408385031215620001ab57600080fd5b600083015167ffffffffffffffff811115620001c657600080fd5b620001d4858286016200016a565b925050602083015167ffffffffffffffff811115620001f257600080fd5b62000200858286016200016a565b9150509250929050565b6000604051905081810181811067ffffffffffffffff821117156200023457620002336200030c565b5b8060405250919050565b600067ffffffffffffffff8211156200025c576200025b6200030c565b5b601f19601f8301169050602081019050919050565b60005b838110156200029157808201518184015260208101905062000274565b83811115620002a1576000848401525b50505050565b60006002820490506001821680620002c057607f821691505b60208210811415620002d757620002d6620002dd565b5b50919050565b7f4e487b7100000000000000000000000000000000000000000000000000000000600052602260045260246000fd5b7f4e487b7100000000000000000000000000000000000000000000000000000000600052604160045260246000fd5b613217806200034b6000396000f3fe608060405234801561001057600080fd5b50600436106101375760003560e01c80636b0c2a73116100b8578063b38da2811161007c578063b38da28114610348578063b88d4fde14610378578063c2f1f14a14610394578063c87b56dd146103c4578063e985e9c5146103f4578063f0a3064e1461042457610137565b80636b0c2a73146102a657806370a08231146102c2578063793ebe27146102f257806395d89b411461030e578063a22cb4651461032c57610137565b806323b872dd116100ff57806323b872dd146102065780634248083b1461022257806342842e0e1461023e57806360a92e311461025a5780636352211e1461027657610137565b806301ffc9a71461013c57806306fdde031461016c578063081812fc1461018a578063095ea7b3146101ba57806312cae7af146101d6575b600080fd5b6101566004803603810190610151919061205a565b610440565b6040516101639190612adf565b60405180910390f35b610174610522565b6040516101819190612afa565b60405180910390f35b6101a4600480360381019061019f91906120ac565b6105b4565b6040516101b19190612a41565b60405180910390f35b6101d460048036038101906101cf919061201e565b610639565b005b6101f060048036038101906101eb9190611eb3565b610751565b6040516101fd9190612ddc565b60405180910390f35b610220600480360381019061021b9190611f18565b610809565b005b61023c6004803603810190610237919061201e565b610869565b005b61025860048036038101906102539190611f18565b610964565b005b610274600480360381019061026f9190611f67565b610984565b005b610290600480360381019061028b91906120ac565b6109fe565b60405161029d9190612a41565b60405180910390f35b6102c060048036038101906102bb9190611f18565b610ab0565b005b6102dc60048036038101906102d79190611eb3565b610ad0565b6040516102e99190612ddc565b60405180910390f35b61030c60048036038101906103079190611f18565b610b88565b005b610316610ba8565b6040516103239190612afa565b60405180910390f35b61034660048036038101906103419190611fe2565b610c3a565b005b610362600480360381019061035d91906120ac565b610c50565b60405161036f9190612a41565b60405180910390f35b610392600480360381019061038d9190611f67565b610cd5565b005b6103ae60048036038101906103a991906120ac565b610d37565b6040516103bb9190612a41565b60405180910390f35b6103de60048036038101906103d991906120ac565b610de9565b6040516103eb9190612afa565b60405180910390f35b61040e60048036038101906104099190611edc565b610e90565b60405161041b9190612adf565b60405180910390f35b61043e60048036038101906104399190611f67565b610f24565b005b60007f80ac58cd000000000000000000000000000000000000000000000000000000007bffffffffffffffffffffffffffffffffffffffffffffffffffffffff1916827bffffffffffffffffffffffffffffffffffffffffffffffffffffffff1916148061050b57507f5b5e139f000000000000000000000000000000000000000000000000000000007bffffffffffffffffffffffffffffffffffffffffffffffffffffffff1916827bffffffffffffffffffffffffffffffffffffffffffffffffffffffff1916145b8061051b575061051a82610fb0565b5b9050919050565b6060600080546105319061300c565b80601f016020809104026020016040519081016040528092919081815260200182805461055d9061300c565b80156105aa5780601f1061057f576101008083540402835291602001916105aa565b820191906000526020600020905b81548152906001019060200180831161058d57829003601f168201915b5050505050905090565b60006105bf8261101a565b6105fe576040517f08c379a00000000000000000000000000000000000000000000000000000000081526004016105f590612cdc565b60405180910390fd5b6004600083815260200190815260200160002060009054906101000a900473ffffffffffffffffffffffffffffffffffffffff169050919050565b6000610644826109fe565b90508073ffffffffffffffffffffffffffffffffffffffff168373ffffffffffffffffffffffffffffffffffffffff1614156106b5576040517f08c379a00000000000000000000000000000000000000000000000000000000081526004016106ac90612d7c565b60405180910390fd5b8073ffffffffffffffffffffffffffffffffffffffff166106d4611086565b73ffffffffffffffffffffffffffffffffffffffff1614806107035750610702816106fd611086565b610e90565b5b610742576040517f08c379a000000000000000000000000000000000000000000000000000000000815260040161073990612c3c565b60405180910390fd5b61074c838361108e565b505050565b60008073ffffffffffffffffffffffffffffffffffffffff168273ffffffffffffffffffffffffffffffffffffffff1614156107c2576040517f08c379a00000000000000000000000000000000000000000000000000000000081526004016107b990612b7c565b60405180910390fd5b600760008373ffffffffffffffffffffffffffffffffffffffff1673ffffffffffffffffffffffffffffffffffffffff168152602001908152602001600020549050919050565b61081a610814611086565b82611147565b610859576040517f08c379a000000000000000000000000000000000000000000000000000000000815260040161085090612d9c565b60405180910390fd5b610864838383611225565b505050565b600061087482610d37565b90508073ffffffffffffffffffffffffffffffffffffffff168373ffffffffffffffffffffffffffffffffffffffff1614156108e5576040517f08c379a00000000000000000000000000000000000000000000000000000000081526004016108dc90612b1c565b60405180910390fd5b6108f66108f0611086565b83611147565b8061090e575061090d610907611086565b83611481565b5b61094d576040517f08c379a000000000000000000000000000000000000000000000000000000000815260040161094490612cfc565b60405180910390fd5b61095f610958611086565b848461154e565b505050565b61097f83838360405180602001604052806000815250610cd5565b505050565b61099561098f611086565b83611481565b806109ad57506109ac6109a6611086565b83611147565b5b6109ec576040517f08c379a00000000000000000000000000000000000000000000000000000000081526004016109e390612c1c565b60405180910390fd5b6109f884848484611600565b50505050565b6000806002600084815260200190815260200160002060009054906101000a900473ffffffffffffffffffffffffffffffffffffffff169050600073ffffffffffffffffffffffffffffffffffffffff168173ffffffffffffffffffffffffffffffffffffffff161415610aa7576040517f08c379a0000000000000000000000000000000000000000000000000000000008152600401610a9e90612c7c565b60405180910390fd5b80915050919050565b610acb83838360405180602001604052806000815250610f24565b505050565b60008073ffffffffffffffffffffffffffffffffffffffff168273ffffffffffffffffffffffffffffffffffffffff161415610b41576040517f08c379a0000000000000000000000000000000000000000000000000000000008152600401610b3890612c5c565b60405180910390fd5b600360008373ffffffffffffffffffffffffffffffffffffffff1673ffffffffffffffffffffffffffffffffffffffff168152602001908152602001600020549050919050565b610ba383838360405180602001604052806000815250610984565b505050565b606060018054610bb79061300c565b80601f0160208091040260200160405190810160405280929190818152602001828054610be39061300c565b8015610c305780601f10610c0557610100808354040283529160200191610c30565b820191906000526020600020905b815481529060010190602001808311610c1357829003601f168201915b5050505050905090565b610c4c610c45611086565b8383611611565b5050565b6000610c5b8261101a565b610c9a576040517f08c379a0000000000000000000000000000000000000000000000000000000008152600401610c9190612cbc565b60405180910390fd5b6008600083815260200190815260200160002060009054906101000a900473ffffffffffffffffffffffffffffffffffffffff169050919050565b610ce6610ce0611086565b83611147565b610d25576040517f08c379a0000000000000000000000000000000000000000000000000000000008152600401610d1c90612d9c565b60405180910390fd5b610d318484848461177e565b50505050565b6000806006600084815260200190815260200160002060009054906101000a900473ffffffffffffffffffffffffffffffffffffffff169050600073ffffffffffffffffffffffffffffffffffffffff168173ffffffffffffffffffffffffffffffffffffffff161415610de0576040517f08c379a0000000000000000000000000000000000000000000000000000000008152600401610dd790612dbc565b60405180910390fd5b80915050919050565b6060610df48261101a565b610e33576040517f08c379a0000000000000000000000000000000000000000000000000000000008152600401610e2a90612d3c565b60405180910390fd5b6000610e3d6117da565b90506000815111610e5d5760405180602001604052806000815250610e88565b80610e67846117f1565b604051602001610e78929190612a1d565b6040516020818303038152906040525b915050919050565b6000600560008473ffffffffffffffffffffffffffffffffffffffff1673ffffffffffffffffffffffffffffffffffffffff16815260200190815260200160002060008373ffffffffffffffffffffffffffffffffffffffff1673ffffffffffffffffffffffffffffffffffffffff16815260200190815260200160002060009054906101000a900460ff16905092915050565b610f35610f2f611086565b83611147565b610f74576040517f08c379a0000000000000000000000000000000000000000000000000000000008152600401610f6b90612d5c565b60405180910390fd5b610f8f84848460405180602001604052806000815250610984565b610faa84848460405180602001604052806000815250610cd5565b50505050565b60007f01ffc9a7000000000000000000000000000000000000000000000000000000007bffffffffffffffffffffffffffffffffffffffffffffffffffffffff1916827bffffffffffffffffffffffffffffffffffffffffffffffffffffffff1916149050919050565b60008073ffffffffffffffffffffffffffffffffffffffff166002600084815260200190815260200160002060009054906101000a900473ffffffffffffffffffffffffffffffffffffffff1673ffffffffffffffffffffffffffffffffffffffff1614159050919050565b600033905090565b816004600083815260200190815260200160002060006101000a81548173ffffffffffffffffffffffffffffffffffffffff021916908373ffffffffffffffffffffffffffffffffffffffff160217905550808273ffffffffffffffffffffffffffffffffffffffff16611101836109fe565b73ffffffffffffffffffffffffffffffffffffffff167f8c5be1e5ebec7d5bd14f71427d1e84f3dd0314c0f7b2291e5b200ac8c7c3b92560405160405180910390a45050565b60006111528261101a565b611191576040517f08c379a000000000000000000000000000000000000000000000000000000000815260040161118890612bfc565b60405180910390fd5b600061119c836109fe565b90508073ffffffffffffffffffffffffffffffffffffffff168473ffffffffffffffffffffffffffffffffffffffff16148061120b57508373ffffffffffffffffffffffffffffffffffffffff166111f3846105b4565b73ffffffffffffffffffffffffffffffffffffffff16145b8061121c575061121b8185610e90565b5b91505092915050565b8273ffffffffffffffffffffffffffffffffffffffff16611245826109fe565b73ffffffffffffffffffffffffffffffffffffffff161461129b576040517f08c379a000000000000000000000000000000000000000000000000000000000815260040161129290612d1c565b60405180910390fd5b600073ffffffffffffffffffffffffffffffffffffffff168273ffffffffffffffffffffffffffffffffffffffff16141561130b576040517f08c379a000000000000000000000000000000000000000000000000000000000815260040161130290612b9c565b60405180910390fd5b61131683838361199e565b61132160008261108e565b6001600360008573ffffffffffffffffffffffffffffffffffffffff1673ffffffffffffffffffffffffffffffffffffffff16815260200190815260200160002060008282546113719190612f22565b925050819055506001600360008473ffffffffffffffffffffffffffffffffffffffff1673ffffffffffffffffffffffffffffffffffffffff16815260200190815260200160002060008282546113c89190612e9b565b92505081905550816002600083815260200190815260200160002060006101000a81548173ffffffffffffffffffffffffffffffffffffffff021916908373ffffffffffffffffffffffffffffffffffffffff160217905550808273ffffffffffffffffffffffffffffffffffffffff168473ffffffffffffffffffffffffffffffffffffffff167fddf252ad1be2c89b69c2b068fc378daa952ba7f163c4a11628f55a4df523b3ef60405160405180910390a4505050565b600061148c8261101a565b6114cb576040517f08c379a00000000000000000000000000000000000000000000000000000000081526004016114c290612bdc565b60405180910390fd5b60006114d683610d37565b90508073ffffffffffffffffffffffffffffffffffffffff168473ffffffffffffffffffffffffffffffffffffffff16148061154557508373ffffffffffffffffffffffffffffffffffffffff1661152d84610c50565b73ffffffffffffffffffffffffffffffffffffffff16145b91505092915050565b816008600083815260200190815260200160002060006101000a81548173ffffffffffffffffffffffffffffffffffffffff021916908373ffffffffffffffffffffffffffffffffffffffff160217905550808273ffffffffffffffffffffffffffffffffffffffff168473ffffffffffffffffffffffffffffffffffffffff167fd8078a2923cdbf93bc7fb5669692f4168a8a7fa4b54cfdfab5d85d0a4733db8360405160405180910390a4505050565b61160b8484846119a3565b50505050565b8173ffffffffffffffffffffffffffffffffffffffff168373ffffffffffffffffffffffffffffffffffffffff161415611680576040517f08c379a000000000000000000000000000000000000000000000000000000000815260040161167790612bbc565b60405180910390fd5b80600560008573ffffffffffffffffffffffffffffffffffffffff1673ffffffffffffffffffffffffffffffffffffffff16815260200190815260200160002060008473ffffffffffffffffffffffffffffffffffffffff1673ffffffffffffffffffffffffffffffffffffffff16815260200190815260200160002060006101000a81548160ff0219169083151502179055508173ffffffffffffffffffffffffffffffffffffffff168373ffffffffffffffffffffffffffffffffffffffff167f17307eab39ab6107e8899845ad3d59bd9653f200f220920489ca2b5937696c31836040516117719190612adf565b60405180910390a3505050565b611789848484611225565b61179584848484611c33565b6117d4576040517f08c379a00000000000000000000000000000000000000000000000000000000081526004016117cb90612b3c565b60405180910390fd5b50505050565b606060405180602001604052806000815250905090565b60606000821415611839576040518060400160405280600181526020017f30000000000000000000000000000000000000000000000000000000000000008152509050611999565b600082905060005b6000821461186b5780806118549061303e565b915050600a826118649190612ef1565b9150611841565b60008167ffffffffffffffff8111156118ad577f4e487b7100000000000000000000000000000000000000000000000000000000600052604160045260246000fd5b6040519080825280601f01601f1916602001820160405280156118df5781602001600182028036833780820191505090505b5090505b60008514611992576001826118f89190612f22565b9150600a856119079190613087565b60306119139190612e9b565b60f81b81838151811061194f577f4e487b7100000000000000000000000000000000000000000000000000000000600052603260045260246000fd5b60200101907effffffffffffffffffffffffffffffffffffffffffffffffffffffffffffff1916908160001a905350600a8561198b9190612ef1565b94506118e3565b8093505050505b919050565b505050565b8273ffffffffffffffffffffffffffffffffffffffff166119c382610d37565b73ffffffffffffffffffffffffffffffffffffffff161480611a1857508273ffffffffffffffffffffffffffffffffffffffff16611a00826109fe565b73ffffffffffffffffffffffffffffffffffffffff16145b611a57576040517f08c379a0000000000000000000000000000000000000000000000000000000008152600401611a4e90612c9c565b60405180910390fd5b600073ffffffffffffffffffffffffffffffffffffffff168273ffffffffffffffffffffffffffffffffffffffff161415611ac7576040517f08c379a0000000000000000000000000000000000000000000000000000000008152600401611abe90612b5c565b60405180910390fd5b6000611ad282610d37565b9050611adf818484611dca565b611af2611aea611086565b60008461154e565b6001600760008373ffffffffffffffffffffffffffffffffffffffff1673ffffffffffffffffffffffffffffffffffffffff1681526020019081526020016000206000828254611b429190612f22565b925050819055506001600760008573ffffffffffffffffffffffffffffffffffffffff1673ffffffffffffffffffffffffffffffffffffffff1681526020019081526020016000206000828254611b999190612e9b565b92505081905550826006600084815260200190815260200160002060006101000a81548173ffffffffffffffffffffffffffffffffffffffff021916908373ffffffffffffffffffffffffffffffffffffffff1602179055507f639e74af80ca94f0f311b0c8c8c9d95cc5c8a5142f5afb7a6a24e283e2936bf4818484604051611c2593929190612a5c565b60405180910390a150505050565b6000611c548473ffffffffffffffffffffffffffffffffffffffff16611dcf565b15611dbd578373ffffffffffffffffffffffffffffffffffffffff1663150b7a02611c7d611086565b8786866040518563ffffffff1660e01b8152600401611c9f9493929190612a93565b602060405180830381600087803b158015611cb957600080fd5b505af1925050508015611cea57506040513d601f19601f82011682018060405250810190611ce79190612083565b60015b611d6d573d8060008114611d1a576040519150601f19603f3d011682016040523d82523d6000602084013e611d1f565b606091505b50600081511415611d65576040517f08c379a0000000000000000000000000000000000000000000000000000000008152600401611d5c90612b3c565b60405180910390fd5b805181602001fd5b63150b7a0260e01b7bffffffffffffffffffffffffffffffffffffffffffffffffffffffff1916817bffffffffffffffffffffffffffffffffffffffffffffffffffffffff191614915050611dc2565b600190505b949350505050565b505050565b600080823b905060008111915050919050565b6000611df5611df084612e28565b612df7565b905082815260208101848484011115611e0d57600080fd5b611e18848285612fca565b509392505050565b600081359050611e2f81613185565b92915050565b600081359050611e448161319c565b92915050565b600081359050611e59816131b3565b92915050565b600081519050611e6e816131b3565b92915050565b600082601f830112611e8557600080fd5b8135611e95848260208601611de2565b91505092915050565b600081359050611ead816131ca565b92915050565b600060208284031215611ec557600080fd5b6000611ed384828501611e20565b91505092915050565b60008060408385031215611eef57600080fd5b6000611efd85828601611e20565b9250506020611f0e85828601611e20565b9150509250929050565b600080600060608486031215611f2d57600080fd5b6000611f3b86828701611e20565b9350506020611f4c86828701611e20565b9250506040611f5d86828701611e9e565b9150509250925092565b60008060008060808587031215611f7d57600080fd5b6000611f8b87828801611e20565b9450506020611f9c87828801611e20565b9350506040611fad87828801611e9e565b925050606085013567ffffffffffffffff811115611fca57600080fd5b611fd687828801611e74565b91505092959194509250565b60008060408385031215611ff557600080fd5b600061200385828601611e20565b925050602061201485828601611e35565b9150509250929050565b6000806040838503121561203157600080fd5b600061203f85828601611e20565b925050602061205085828601611e9e565b9150509250929050565b60006020828403121561206c57600080fd5b600061207a84828501611e4a565b91505092915050565b60006020828403121561209557600080fd5b60006120a384828501611e5f565b91505092915050565b6000602082840312156120be57600080fd5b60006120cc84828501611e9e565b91505092915050565b6120de81612f56565b82525050565b6120ed81612f68565b82525050565b60006120fe82612e58565b6121088185612e6e565b9350612118818560208601612fd9565b61212181613174565b840191505092915050565b600061213782612e63565b6121418185612e7f565b9350612151818560208601612fd9565b61215a81613174565b840191505092915050565b600061217082612e63565b61217a8185612e90565b935061218a818560208601612fd9565b80840191505092915050565b60006121a3601e83612e7f565b91507f455243583a20617070726f76616c20746f2063757272656e74207573657200006000830152602082019050919050565b60006121e3603283612e7f565b91507f4552433732313a207472616e7366657220746f206e6f6e20455243373231526560008301527f63656976657220696d706c656d656e74657200000000000000000000000000006020830152604082019050919050565b6000612249602283612e7f565b91507f455243583a207472616e7366657220746f20746865207a65726f20616464726560008301527f73730000000000000000000000000000000000000000000000000000000000006020830152604082019050919050565b60006122af602883612e7f565b91507f455243583a2062616c616e636520717565727920666f7220746865207a65726f60008301527f20616464726573730000000000000000000000000000000000000000000000006020830152604082019050919050565b6000612315602483612e7f565b91507f4552433732313a207472616e7366657220746f20746865207a65726f2061646460008301527f72657373000000000000000000000000000000000000000000000000000000006020830152604082019050919050565b600061237b601983612e7f565b91507f4552433732313a20617070726f766520746f2063616c6c6572000000000000006000830152602082019050919050565b60006123bb602a83612e7f565b91507f455243583a206f70657261746f7220717565727920666f72206e6f6e6578697360008301527f74656e7420746f6b656e000000000000000000000000000000000000000000006020830152604082019050919050565b6000612421602c83612e7f565b91507f4552433732313a206f70657261746f7220717565727920666f72206e6f6e657860008301527f697374656e7420746f6b656e00000000000000000000000000000000000000006020830152604082019050919050565b6000612487603783612e7f565b91507f455243583a207472616e736665722063616c6c6572206973206e6f742075736560008301527f72206f72206f776e6572206e6f7220617070726f7665640000000000000000006020830152604082019050919050565b60006124ed603883612e7f565b91507f4552433732313a20617070726f76652063616c6c6572206973206e6f74206f7760008301527f6e6572206e6f7220617070726f76656420666f7220616c6c00000000000000006020830152604082019050919050565b6000612553602a83612e7f565b91507f4552433732313a2062616c616e636520717565727920666f7220746865207a6560008301527f726f2061646472657373000000000000000000000000000000000000000000006020830152604082019050919050565b60006125b9602983612e7f565b91507f4552433732313a206f776e657220717565727920666f72206e6f6e657869737460008301527f656e7420746f6b656e00000000000000000000000000000000000000000000006020830152604082019050919050565b600061261f602783612e7f565b91507f455243583a207472616e73666572206f6620746f6b656e20746861742069732060008301527f6e6f7420757365000000000000000000000000000000000000000000000000006020830152604082019050919050565b6000612685602a83612e7f565b91507f455243583a20617070726f76656420717565727920666f72206e6f6e6578697360008301527f74656e7420746f6b656e000000000000000000000000000000000000000000006020830152604082019050919050565b60006126eb602c83612e7f565b91507f4552433732313a20617070726f76656420717565727920666f72206e6f6e657860008301527f697374656e7420746f6b656e00000000000000000000000000000000000000006020830152604082019050919050565b6000612751603683612e7f565b91507f455243583a20617070726f76652063616c6c6572206973206e6f74206f776e6560008301527f72206e6f7220617070726f76656420666f7220616c6c000000000000000000006020830152604082019050919050565b60006127b7602983612e7f565b91507f4552433732313a207472616e73666572206f6620746f6b656e2074686174206960008301527f73206e6f74206f776e00000000000000000000000000000000000000000000006020830152604082019050919050565b600061281d602f83612e7f565b91507f4552433732314d657461646174613a2055524920717565727920666f72206e6f60008301527f6e6578697374656e7420746f6b656e00000000000000000000000000000000006020830152604082019050919050565b6000612883602f83612e7f565b91507f455243583a207472616e736665722063616c6c6572206973206e6f74206f776e60008301527f6572206e6f7220617070726f76656400000000000000000000000000000000006020830152604082019050919050565b60006128e9602183612e7f565b91507f4552433732313a20617070726f76616c20746f2063757272656e74206f776e6560008301527f72000000000000000000000000000000000000000000000000000000000000006020830152604082019050919050565b600061294f603183612e7f565b91507f4552433732313a207472616e736665722063616c6c6572206973206e6f74206f60008301527f776e6572206e6f7220617070726f7665640000000000000000000000000000006020830152604082019050919050565b60006129b5602683612e7f565b91507f455243583a207573657220717565727920666f72206e6f6e6578697374656e7460008301527f20746f6b656e00000000000000000000000000000000000000000000000000006020830152604082019050919050565b612a1781612fc0565b82525050565b6000612a298285612165565b9150612a358284612165565b91508190509392505050565b6000602082019050612a5660008301846120d5565b92915050565b6000606082019050612a7160008301866120d5565b612a7e60208301856120d5565b612a8b6040830184612a0e565b949350505050565b6000608082019050612aa860008301876120d5565b612ab560208301866120d5565b612ac26040830185612a0e565b8181036060830152612ad481846120f3565b905095945050505050565b6000602082019050612af460008301846120e4565b92915050565b60006020820190508181036000830152612b14818461212c565b905092915050565b60006020820190508181036000830152612b3581612196565b9050919050565b60006020820190508181036000830152612b55816121d6565b9050919050565b60006020820190508181036000830152612b758161223c565b9050919050565b60006020820190508181036000830152612b95816122a2565b9050919050565b60006020820190508181036000830152612bb581612308565b9050919050565b60006020820190508181036000830152612bd58161236e565b9050919050565b60006020820190508181036000830152612bf5816123ae565b9050919050565b60006020820190508181036000830152612c1581612414565b9050919050565b60006020820190508181036000830152612c358161247a565b9050919050565b60006020820190508181036000830152612c55816124e0565b9050919050565b60006020820190508181036000830152612c7581612546565b9050919050565b60006020820190508181036000830152612c95816125ac565b9050919050565b60006020820190508181036000830152612cb581612612565b9050919050565b60006020820190508181036000830152612cd581612678565b9050919050565b60006020820190508181036000830152612cf5816126de565b9050919050565b60006020820190508181036000830152612d1581612744565b9050919050565b60006020820190508181036000830152612d35816127aa565b9050919050565b60006020820190508181036000830152612d5581612810565b9050919050565b60006020820190508181036000830152612d7581612876565b9050919050565b60006020820190508181036000830152612d95816128dc565b9050919050565b60006020820190508181036000830152612db581612942565b9050919050565b60006020820190508181036000830152612dd5816129a8565b9050919050565b6000602082019050612df16000830184612a0e565b92915050565b6000604051905081810181811067ffffffffffffffff82111715612e1e57612e1d613145565b5b8060405250919050565b600067ffffffffffffffff821115612e4357612e42613145565b5b601f19601f8301169050602081019050919050565b600081519050919050565b600081519050919050565b600082825260208201905092915050565b600082825260208201905092915050565b600081905092915050565b6000612ea682612fc0565b9150612eb183612fc0565b9250827fffffffffffffffffffffffffffffffffffffffffffffffffffffffffffffffff03821115612ee657612ee56130b8565b5b828201905092915050565b6000612efc82612fc0565b9150612f0783612fc0565b925082612f1757612f166130e7565b5b828204905092915050565b6000612f2d82612fc0565b9150612f3883612fc0565b925082821015612f4b57612f4a6130b8565b5b828203905092915050565b6000612f6182612fa0565b9050919050565b60008115159050919050565b60007fffffffff0000000000000000000000000000000000000000000000000000000082169050919050565b600073ffffffffffffffffffffffffffffffffffffffff82169050919050565b6000819050919050565b82818337600083830152505050565b60005b83811015612ff7578082015181840152602081019050612fdc565b83811115613006576000848401525b50505050565b6000600282049050600182168061302457607f821691505b6020821081141561303857613037613116565b5b50919050565b600061304982612fc0565b91507fffffffffffffffffffffffffffffffffffffffffffffffffffffffffffffffff82141561307c5761307b6130b8565b5b600182019050919050565b600061309282612fc0565b915061309d83612fc0565b9250826130ad576130ac6130e7565b5b828206905092915050565b7f4e487b7100000000000000000000000000000000000000000000000000000000600052601160045260246000fd5b7f4e487b7100000000000000000000000000000000000000000000000000000000600052601260045260246000fd5b7f4e487b7100000000000000000000000000000000000000000000000000000000600052602260045260246000fd5b7f4e487b7100000000000000000000000000000000000000000000000000000000600052604160045260246000fd5b6000601f19601f8301169050919050565b61318e81612f56565b811461319957600080fd5b50565b6131a581612f68565b81146131b057600080fd5b50565b6131bc81612f74565b81146131c757600080fd5b50565b6131d381612fc0565b81146131de57600080fd5b5056fea2646970667358221220c1b530a29dea1402bd2d4cceb294dc14bac59642ac313b8ab38edb78f242e82564736f6c63430008000033",
  "linkReferences": {},
  "deployedLinkReferences": {}
}