{
  "_format": "hh-sol-artifact-1",
  "contractName": "ERCXMock",
  "sourceName": "contracts/mock/ERCXMock.sol",
  "abi": [
    {
      "inputs": [
        {
          "internalType": "string",
          "name": "name_",
          "type": "string"
        },
        {
          "internalType": "string",
          "name": "symbol_",
          "type": "string"
        }
      ],
      "stateMutability": "nonpayable",
      "type": "constructor"
    },
    {
      "anonymous": false,
      "inputs": [
        {
          "indexed": true,
          "internalType": "address",
          "name": "owner",
          "type": "address"
        },
        {
          "indexed": true,
          "internalType": "address",
          "name": "approved",
          "type": "address"
        },
        {
          "indexed": true,
          "internalType": "uint256",
          "name": "tokenId",
          "type": "uint256"
        }
      ],
      "name": "Approval",
      "type": "event"
    },
    {
      "anonymous": false,
      "inputs": [
        {
          "indexed": true,
          "internalType": "address",
          "name": "owner",
          "type": "address"
        },
        {
          "indexed": true,
          "internalType": "address",
          "name": "operator",
          "type": "address"
        },
        {
          "indexed": false,
          "internalType": "bool",
          "name": "approved",
          "type": "bool"
        }
      ],
      "name": "ApprovalForAll",
      "type": "event"
    },
    {
      "anonymous": false,
      "inputs": [
        {
          "indexed": true,
          "internalType": "address",
          "name": "user",
          "type": "address"
        },
        {
          "indexed": true,
          "internalType": "address",
          "name": "approved",
          "type": "address"
        },
        {
          "indexed": true,
          "internalType": "uint256",
          "name": "tokenId",
          "type": "uint256"
        }
      ],
      "name": "ApprovalUser",
      "type": "event"
    },
    {
      "anonymous": false,
      "inputs": [
        {
          "indexed": true,
          "internalType": "address",
          "name": "from",
          "type": "address"
        },
        {
          "indexed": true,
          "internalType": "address",
          "name": "to",
          "type": "address"
        },
        {
          "indexed": true,
          "internalType": "uint256",
          "name": "tokenId",
          "type": "uint256"
        }
      ],
      "name": "Transfer",
      "type": "event"
    },
    {
      "anonymous": false,
      "inputs": [
        {
          "indexed": false,
          "internalType": "address",
          "name": "from",
          "type": "address"
        },
        {
          "indexed": false,
          "internalType": "address",
          "name": "to",
          "type": "address"
        },
        {
          "indexed": false,
          "internalType": "uint256",
          "name": "tokenId",
          "type": "uint256"
        }
      ],
      "name": "TransferUser",
      "type": "event"
    },
    {
      "inputs": [
        {
          "internalType": "address",
          "name": "to",
          "type": "address"
        },
        {
          "internalType": "uint256",
          "name": "tokenId",
          "type": "uint256"
        }
      ],
      "name": "approve",
      "outputs": [],
      "stateMutability": "nonpayable",
      "type": "function"
    },
    {
      "inputs": [
        {
          "internalType": "address",
          "name": "to",
          "type": "address"
        },
        {
          "internalType": "uint256",
          "name": "tokenId",
          "type": "uint256"
        }
      ],
      "name": "approveUser",
      "outputs": [],
      "stateMutability": "nonpayable",
      "type": "function"
    },
    {
      "inputs": [
        {
          "internalType": "address",
          "name": "owner",
          "type": "address"
        }
      ],
      "name": "balanceOf",
      "outputs": [
        {
          "internalType": "uint256",
          "name": "",
          "type": "uint256"
        }
      ],
      "stateMutability": "view",
      "type": "function"
    },
    {
      "inputs": [
        {
          "internalType": "address",
          "name": "user",
          "type": "address"
        }
      ],
      "name": "balanceOfUser",
      "outputs": [
        {
          "internalType": "uint256",
          "name": "",
          "type": "uint256"
        }
      ],
      "stateMutability": "view",
      "type": "function"
    },
    {
      "inputs": [
        {
          "internalType": "uint256",
          "name": "tokenId",
          "type": "uint256"
        }
      ],
      "name": "burn",
      "outputs": [],
      "stateMutability": "nonpayable",
      "type": "function"
    },
    {
      "inputs": [
        {
          "internalType": "uint256",
          "name": "tokenId",
          "type": "uint256"
        }
      ],
      "name": "getApproved",
      "outputs": [
        {
          "internalType": "address",
          "name": "",
          "type": "address"
        }
      ],
      "stateMutability": "view",
      "type": "function"
    },
    {
      "inputs": [
        {
          "internalType": "uint256",
          "name": "tokenId",
          "type": "uint256"
        }
      ],
      "name": "getApprovedUser",
      "outputs": [
        {
          "internalType": "address",
          "name": "",
          "type": "address"
        }
      ],
      "stateMutability": "view",
      "type": "function"
    },
    {
      "inputs": [
        {
          "internalType": "address",
          "name": "owner",
          "type": "address"
        },
        {
          "internalType": "address",
          "name": "operator",
          "type": "address"
        }
      ],
      "name": "isApprovedForAll",
      "outputs": [
        {
          "internalType": "bool",
          "name": "",
          "type": "bool"
        }
      ],
      "stateMutability": "view",
      "type": "function"
    },
    {
      "inputs": [],
      "name": "name",
      "outputs": [
        {
          "internalType": "string",
          "name": "",
          "type": "string"
        }
      ],
      "stateMutability": "view",
      "type": "function"
    },
    {
      "inputs": [
        {
          "internalType": "uint256",
          "name": "tokenId",
          "type": "uint256"
        }
      ],
      "name": "ownerOf",
      "outputs": [
        {
          "internalType": "address",
          "name": "",
          "type": "address"
        }
      ],
      "stateMutability": "view",
      "type": "function"
    },
    {
      "inputs": [
        {
          "internalType": "address",
          "name": "from",
          "type": "address"
        },
        {
          "internalType": "uint256",
          "name": "tokenId",
          "type": "uint256"
        }
      ],
      "name": "safeMint",
      "outputs": [],
      "stateMutability": "nonpayable",
      "type": "function"
    },
    {
      "inputs": [
        {
          "internalType": "address",
          "name": "from",
          "type": "address"
        },
        {
          "internalType": "address",
          "name": "to",
          "type": "address"
        },
        {
          "internalType": "uint256",
          "name": "tokenId",
          "type": "uint256"
        }
      ],
      "name": "safeTransferAllFrom",
      "outputs": [],
      "stateMutability": "nonpayable",
      "type": "function"
    },
    {
      "inputs": [
        {
          "internalType": "address",
          "name": "from",
          "type": "address"
        },
        {
          "internalType": "address",
          "name": "to",
          "type": "address"
        },
        {
          "internalType": "uint256",
          "name": "tokenId",
          "type": "uint256"
        },
        {
          "internalType": "bytes",
          "name": "_data",
          "type": "bytes"
        }
      ],
      "name": "safeTransferAllFrom",
      "outputs": [],
      "stateMutability": "nonpayable",
      "type": "function"
    },
    {
      "inputs": [
        {
          "internalType": "address",
          "name": "from",
          "type": "address"
        },
        {
          "internalType": "address",
          "name": "to",
          "type": "address"
        },
        {
          "internalType": "uint256",
          "name": "tokenId",
          "type": "uint256"
        }
      ],
      "name": "safeTransferFrom",
      "outputs": [],
      "stateMutability": "nonpayable",
      "type": "function"
    },
    {
      "inputs": [
        {
          "internalType": "address",
          "name": "from",
          "type": "address"
        },
        {
          "internalType": "address",
          "name": "to",
          "type": "address"
        },
        {
          "internalType": "uint256",
          "name": "tokenId",
          "type": "uint256"
        },
        {
          "internalType": "bytes",
          "name": "_data",
          "type": "bytes"
        }
      ],
      "name": "safeTransferFrom",
      "outputs": [],
      "stateMutability": "nonpayable",
      "type": "function"
    },
    {
      "inputs": [
        {
          "internalType": "address",
          "name": "from",
          "type": "address"
        },
        {
          "internalType": "address",
          "name": "to",
          "type": "address"
        },
        {
          "internalType": "uint256",
          "name": "tokenId",
          "type": "uint256"
        },
        {
          "internalType": "bytes",
          "name": "_data",
          "type": "bytes"
        }
      ],
      "name": "safeTransferUserFrom",
      "outputs": [],
      "stateMutability": "nonpayable",
      "type": "function"
    },
    {
      "inputs": [
        {
          "internalType": "address",
          "name": "from",
          "type": "address"
        },
        {
          "internalType": "address",
          "name": "to",
          "type": "address"
        },
        {
          "internalType": "uint256",
          "name": "tokenId",
          "type": "uint256"
        }
      ],
      "name": "safeTransferUserFrom",
      "outputs": [],
      "stateMutability": "nonpayable",
      "type": "function"
    },
    {
      "inputs": [
        {
          "internalType": "address",
          "name": "operator",
          "type": "address"
        },
        {
          "internalType": "bool",
          "name": "approved",
          "type": "bool"
        }
      ],
      "name": "setApprovalForAll",
      "outputs": [],
      "stateMutability": "nonpayable",
      "type": "function"
    },
    {
      "inputs": [
        {
          "internalType": "bytes4",
          "name": "interfaceId",
          "type": "bytes4"
        }
      ],
      "name": "supportsInterface",
      "outputs": [
        {
          "internalType": "bool",
          "name": "",
          "type": "bool"
        }
      ],
      "stateMutability": "view",
      "type": "function"
    },
    {
      "inputs": [],
      "name": "symbol",
      "outputs": [
        {
          "internalType": "string",
          "name": "",
          "type": "string"
        }
      ],
      "stateMutability": "view",
      "type": "function"
    },
    {
      "inputs": [
        {
          "internalType": "uint256",
          "name": "tokenId",
          "type": "uint256"
        }
      ],
      "name": "tokenURI",
      "outputs": [
        {
          "internalType": "string",
          "name": "",
          "type": "string"
        }
      ],
      "stateMutability": "view",
      "type": "function"
    },
    {
      "inputs": [
        {
          "internalType": "address",
          "name": "from",
          "type": "address"
        },
        {
          "internalType": "address",
          "name": "to",
          "type": "address"
        },
        {
          "internalType": "uint256",
          "name": "tokenId",
          "type": "uint256"
        }
      ],
      "name": "transferFrom",
      "outputs": [],
      "stateMutability": "nonpayable",
      "type": "function"
    },
    {
      "inputs": [
        {
          "internalType": "uint256",
          "name": "tokenId",
          "type": "uint256"
        }
      ],
      "name": "userOf",
      "outputs": [
        {
          "internalType": "address",
          "name": "",
          "type": "address"
        }
      ],
      "stateMutability": "view",
      "type": "function"
    }
  ],
  "bytecode": "0x60806040523480156200001157600080fd5b5060405162003cb738038062003cb783398181016040528101906200003791906200019b565b8181818181600090805190602001906200005392919062000079565b5080600190805190602001906200006c92919062000079565b505050505050506200033f565b8280546200008790620002ab565b90600052602060002090601f016020900481019282620000ab5760008555620000f7565b82601f10620000c657805160ff1916838001178555620000f7565b82800160010185558215620000f7579182015b82811115620000f6578251825591602001919060010190620000d9565b5b5090506200010691906200010a565b5090565b5b80821115620001255760008160009055506001016200010b565b5090565b6000620001406200013a8462000242565b6200020e565b9050828152602081018484840111156200015957600080fd5b6200016684828562000275565b509392505050565b600082601f8301126200018057600080fd5b81516200019284826020860162000129565b91505092915050565b60008060408385031215620001af57600080fd5b600083015167ffffffffffffffff811115620001ca57600080fd5b620001d8858286016200016e565b925050602083015167ffffffffffffffff811115620001f657600080fd5b62000204858286016200016e565b9150509250929050565b6000604051905081810181811067ffffffffffffffff8211171562000238576200023762000310565b5b8060405250919050565b600067ffffffffffffffff82111562000260576200025f62000310565b5b601f19601f8301169050602081019050919050565b60005b838110156200029557808201518184015260208101905062000278565b83811115620002a5576000848401525b50505050565b60006002820490506001821680620002c457607f821691505b60208210811415620002db57620002da620002e1565b5b50919050565b7f4e487b7100000000000000000000000000000000000000000000000000000000600052602260045260246000fd5b7f4e487b7100000000000000000000000000000000000000000000000000000000600052604160045260246000fd5b613968806200034f6000396000f3fe608060405234801561001057600080fd5b506004361061014d5760003560e01c80636b0c2a73116100c3578063b38da2811161007c578063b38da28114610396578063b88d4fde146103c6578063c2f1f14a146103e2578063c87b56dd14610412578063e985e9c514610442578063f0a3064e146104725761014d565b80636b0c2a73146102d857806370a08231146102f4578063793ebe271461032457806395d89b4114610340578063a14481941461035e578063a22cb4651461037a5761014d565b806323b872dd1161011557806323b872dd1461021c5780634248083b1461023857806342842e0e1461025457806342966c681461027057806360a92e311461028c5780636352211e146102a85761014d565b806301ffc9a71461015257806306fdde0314610182578063081812fc146101a0578063095ea7b3146101d057806312cae7af146101ec575b600080fd5b61016c6004803603810190610167919061268b565b61048e565b60405161017991906131d0565b60405180910390f35b61018a610570565b60405161019791906131eb565b60405180910390f35b6101ba60048036038101906101b591906126dd565b610602565b6040516101c79190613132565b60405180910390f35b6101ea60048036038101906101e5919061264f565b610687565b005b610206600480360381019061020191906124e4565b61079f565b604051610213919061352d565b60405180910390f35b61023660048036038101906102319190612549565b610857565b005b610252600480360381019061024d919061264f565b6108b7565b005b61026e60048036038101906102699190612549565b6109b2565b005b61028a600480360381019061028591906126dd565b6109d2565b005b6102a660048036038101906102a19190612598565b6109de565b005b6102c260048036038101906102bd91906126dd565b610a58565b6040516102cf9190613132565b60405180910390f35b6102f260048036038101906102ed9190612549565b610b0a565b005b61030e600480360381019061030991906124e4565b610b2a565b60405161031b919061352d565b60405180910390f35b61033e60048036038101906103399190612549565b610be2565b005b610348610c02565b60405161035591906131eb565b60405180910390f35b6103786004803603810190610373919061264f565b610c94565b005b610394600480360381019061038f9190612613565b610ca2565b005b6103b060048036038101906103ab91906126dd565b610cb8565b6040516103bd9190613132565b60405180910390f35b6103e060048036038101906103db9190612598565b610d3d565b005b6103fc60048036038101906103f791906126dd565b610d9f565b6040516104099190613132565b60405180910390f35b61042c600480360381019061042791906126dd565b610e51565b60405161043991906131eb565b60405180910390f35b61045c6004803603810190610457919061250d565b610ef8565b60405161046991906131d0565b60405180910390f35b61048c60048036038101906104879190612598565b610f8c565b005b60007f80ac58cd000000000000000000000000000000000000000000000000000000007bffffffffffffffffffffffffffffffffffffffffffffffffffffffff1916827bffffffffffffffffffffffffffffffffffffffffffffffffffffffff1916148061055957507f5b5e139f000000000000000000000000000000000000000000000000000000007bffffffffffffffffffffffffffffffffffffffffffffffffffffffff1916827bffffffffffffffffffffffffffffffffffffffffffffffffffffffff1916145b80610569575061056882611018565b5b9050919050565b60606000805461057f9061375d565b80601f01602080910402602001604051908101604052809291908181526020018280546105ab9061375d565b80156105f85780601f106105cd576101008083540402835291602001916105f8565b820191906000526020600020905b8154815290600101906020018083116105db57829003601f168201915b5050505050905090565b600061060d82611082565b61064c576040517f08c379a00000000000000000000000000000000000000000000000000000000081526004016106439061340d565b60405180910390fd5b6004600083815260200190815260200160002060009054906101000a900473ffffffffffffffffffffffffffffffffffffffff169050919050565b600061069282610a58565b90508073ffffffffffffffffffffffffffffffffffffffff168373ffffffffffffffffffffffffffffffffffffffff161415610703576040517f08c379a00000000000000000000000000000000000000000000000000000000081526004016106fa906134ad565b60405180910390fd5b8073ffffffffffffffffffffffffffffffffffffffff166107226110ee565b73ffffffffffffffffffffffffffffffffffffffff16148061075157506107508161074b6110ee565b610ef8565b5b610790576040517f08c379a00000000000000000000000000000000000000000000000000000000081526004016107879061334d565b60405180910390fd5b61079a83836110f6565b505050565b60008073ffffffffffffffffffffffffffffffffffffffff168273ffffffffffffffffffffffffffffffffffffffff161415610810576040517f08c379a00000000000000000000000000000000000000000000000000000000081526004016108079061328d565b60405180910390fd5b600760008373ffffffffffffffffffffffffffffffffffffffff1673ffffffffffffffffffffffffffffffffffffffff168152602001908152602001600020549050919050565b6108686108626110ee565b826111af565b6108a7576040517f08c379a000000000000000000000000000000000000000000000000000000000815260040161089e906134cd565b60405180910390fd5b6108b283838361128d565b505050565b60006108c282610d9f565b90508073ffffffffffffffffffffffffffffffffffffffff168373ffffffffffffffffffffffffffffffffffffffff161415610933576040517f08c379a000000000000000000000000000000000000000000000000000000000815260040161092a9061320d565b60405180910390fd5b61094461093e6110ee565b836111af565b8061095c575061095b6109556110ee565b836114e9565b5b61099b576040517f08c379a00000000000000000000000000000000000000000000000000000000081526004016109929061342d565b60405180910390fd5b6109ad6109a66110ee565b84846115b6565b505050565b6109cd83838360405180602001604052806000815250610d3d565b505050565b6109db81611668565b50565b6109ef6109e96110ee565b836114e9565b80610a075750610a06610a006110ee565b836111af565b5b610a46576040517f08c379a0000000000000000000000000000000000000000000000000000000008152600401610a3d9061332d565b60405180910390fd5b610a528484848461176a565b50505050565b6000806002600084815260200190815260200160002060009054906101000a900473ffffffffffffffffffffffffffffffffffffffff169050600073ffffffffffffffffffffffffffffffffffffffff168173ffffffffffffffffffffffffffffffffffffffff161415610b01576040517f08c379a0000000000000000000000000000000000000000000000000000000008152600401610af89061338d565b60405180910390fd5b80915050919050565b610b2583838360405180602001604052806000815250610f8c565b505050565b60008073ffffffffffffffffffffffffffffffffffffffff168273ffffffffffffffffffffffffffffffffffffffff161415610b9b576040517f08c379a0000000000000000000000000000000000000000000000000000000008152600401610b929061336d565b60405180910390fd5b600360008373ffffffffffffffffffffffffffffffffffffffff1673ffffffffffffffffffffffffffffffffffffffff168152602001908152602001600020549050919050565b610bfd838383604051806020016040528060008152506109de565b505050565b606060018054610c119061375d565b80601f0160208091040260200160405190810160405280929190818152602001828054610c3d9061375d565b8015610c8a5780601f10610c5f57610100808354040283529160200191610c8a565b820191906000526020600020905b815481529060010190602001808311610c6d57829003601f168201915b5050505050905090565b610c9e828261177b565b5050565b610cb4610cad6110ee565b83836118ea565b5050565b6000610cc382611082565b610d02576040517f08c379a0000000000000000000000000000000000000000000000000000000008152600401610cf9906133cd565b60405180910390fd5b6008600083815260200190815260200160002060009054906101000a900473ffffffffffffffffffffffffffffffffffffffff169050919050565b610d4e610d486110ee565b836111af565b610d8d576040517f08c379a0000000000000000000000000000000000000000000000000000000008152600401610d84906134cd565b60405180910390fd5b610d9984848484611a57565b50505050565b6000806006600084815260200190815260200160002060009054906101000a900473ffffffffffffffffffffffffffffffffffffffff169050600073ffffffffffffffffffffffffffffffffffffffff168173ffffffffffffffffffffffffffffffffffffffff161415610e48576040517f08c379a0000000000000000000000000000000000000000000000000000000008152600401610e3f9061350d565b60405180910390fd5b80915050919050565b6060610e5c82611082565b610e9b576040517f08c379a0000000000000000000000000000000000000000000000000000000008152600401610e929061346d565b60405180910390fd5b6000610ea5611ab3565b90506000815111610ec55760405180602001604052806000815250610ef0565b80610ecf84611aca565b604051602001610ee092919061310e565b6040516020818303038152906040525b915050919050565b6000600560008473ffffffffffffffffffffffffffffffffffffffff1673ffffffffffffffffffffffffffffffffffffffff16815260200190815260200160002060008373ffffffffffffffffffffffffffffffffffffffff1673ffffffffffffffffffffffffffffffffffffffff16815260200190815260200160002060009054906101000a900460ff16905092915050565b610f9d610f976110ee565b836111af565b610fdc576040517f08c379a0000000000000000000000000000000000000000000000000000000008152600401610fd39061348d565b60405180910390fd5b610ff7848484604051806020016040528060008152506109de565b61101284848460405180602001604052806000815250610d3d565b50505050565b60007f01ffc9a7000000000000000000000000000000000000000000000000000000007bffffffffffffffffffffffffffffffffffffffffffffffffffffffff1916827bffffffffffffffffffffffffffffffffffffffffffffffffffffffff1916149050919050565b60008073ffffffffffffffffffffffffffffffffffffffff166002600084815260200190815260200160002060009054906101000a900473ffffffffffffffffffffffffffffffffffffffff1673ffffffffffffffffffffffffffffffffffffffff1614159050919050565b600033905090565b816004600083815260200190815260200160002060006101000a81548173ffffffffffffffffffffffffffffffffffffffff021916908373ffffffffffffffffffffffffffffffffffffffff160217905550808273ffffffffffffffffffffffffffffffffffffffff1661116983610a58565b73ffffffffffffffffffffffffffffffffffffffff167f8c5be1e5ebec7d5bd14f71427d1e84f3dd0314c0f7b2291e5b200ac8c7c3b92560405160405180910390a45050565b60006111ba82611082565b6111f9576040517f08c379a00000000000000000000000000000000000000000000000000000000081526004016111f09061330d565b60405180910390fd5b600061120483610a58565b90508073ffffffffffffffffffffffffffffffffffffffff168473ffffffffffffffffffffffffffffffffffffffff16148061127357508373ffffffffffffffffffffffffffffffffffffffff1661125b84610602565b73ffffffffffffffffffffffffffffffffffffffff16145b8061128457506112838185610ef8565b5b91505092915050565b8273ffffffffffffffffffffffffffffffffffffffff166112ad82610a58565b73ffffffffffffffffffffffffffffffffffffffff1614611303576040517f08c379a00000000000000000000000000000000000000000000000000000000081526004016112fa9061344d565b60405180910390fd5b600073ffffffffffffffffffffffffffffffffffffffff168273ffffffffffffffffffffffffffffffffffffffff161415611373576040517f08c379a000000000000000000000000000000000000000000000000000000000815260040161136a906132ad565b60405180910390fd5b61137e838383611c77565b6113896000826110f6565b6001600360008573ffffffffffffffffffffffffffffffffffffffff1673ffffffffffffffffffffffffffffffffffffffff16815260200190815260200160002060008282546113d99190613673565b925050819055506001600360008473ffffffffffffffffffffffffffffffffffffffff1673ffffffffffffffffffffffffffffffffffffffff168152602001908152602001600020600082825461143091906135ec565b92505081905550816002600083815260200190815260200160002060006101000a81548173ffffffffffffffffffffffffffffffffffffffff021916908373ffffffffffffffffffffffffffffffffffffffff160217905550808273ffffffffffffffffffffffffffffffffffffffff168473ffffffffffffffffffffffffffffffffffffffff167fddf252ad1be2c89b69c2b068fc378daa952ba7f163c4a11628f55a4df523b3ef60405160405180910390a4505050565b60006114f482611082565b611533576040517f08c379a000000000000000000000000000000000000000000000000000000000815260040161152a906132ed565b60405180910390fd5b600061153e83610d9f565b90508073ffffffffffffffffffffffffffffffffffffffff168473ffffffffffffffffffffffffffffffffffffffff1614806115ad57508373ffffffffffffffffffffffffffffffffffffffff1661159584610cb8565b73ffffffffffffffffffffffffffffffffffffffff16145b91505092915050565b816008600083815260200190815260200160002060006101000a81548173ffffffffffffffffffffffffffffffffffffffff021916908373ffffffffffffffffffffffffffffffffffffffff160217905550808273ffffffffffffffffffffffffffffffffffffffff168473ffffffffffffffffffffffffffffffffffffffff167fd8078a2923cdbf93bc7fb5669692f4168a8a7fa4b54cfdfab5d85d0a4733db8360405160405180910390a4505050565b61167181611c7c565b600061167c82610d9f565b905061168a81600084611d8d565b61169d6116956110ee565b6000846115b6565b6001600760008373ffffffffffffffffffffffffffffffffffffffff1673ffffffffffffffffffffffffffffffffffffffff16815260200190815260200160002060008282546116ed9190613673565b925050819055506006600083815260200190815260200160002060006101000a81549073ffffffffffffffffffffffffffffffffffffffff02191690557f639e74af80ca94f0f311b0c8c8c9d95cc5c8a5142f5afb7a6a24e283e2936bf48160008460405161175e9392919061314d565b60405180910390a15050565b611775848484611d92565b50505050565b600073ffffffffffffffffffffffffffffffffffffffff168273ffffffffffffffffffffffffffffffffffffffff1614156117eb576040517f08c379a00000000000000000000000000000000000000000000000000000000081526004016117e2906134ed565b60405180910390fd5b6117f760008383611d8d565b6001600760008473ffffffffffffffffffffffffffffffffffffffff1673ffffffffffffffffffffffffffffffffffffffff168152602001908152602001600020600082825461184791906135ec565b92505081905550816006600083815260200190815260200160002060006101000a81548173ffffffffffffffffffffffffffffffffffffffff021916908373ffffffffffffffffffffffffffffffffffffffff1602179055506118aa8282612022565b7f639e74af80ca94f0f311b0c8c8c9d95cc5c8a5142f5afb7a6a24e283e2936bf4600083836040516118de9392919061314d565b60405180910390a15050565b8173ffffffffffffffffffffffffffffffffffffffff168373ffffffffffffffffffffffffffffffffffffffff161415611959576040517f08c379a0000000000000000000000000000000000000000000000000000000008152600401611950906132cd565b60405180910390fd5b80600560008573ffffffffffffffffffffffffffffffffffffffff1673ffffffffffffffffffffffffffffffffffffffff16815260200190815260200160002060008473ffffffffffffffffffffffffffffffffffffffff1673ffffffffffffffffffffffffffffffffffffffff16815260200190815260200160002060006101000a81548160ff0219169083151502179055508173ffffffffffffffffffffffffffffffffffffffff168373ffffffffffffffffffffffffffffffffffffffff167f17307eab39ab6107e8899845ad3d59bd9653f200f220920489ca2b5937696c3183604051611a4a91906131d0565b60405180910390a3505050565b611a6284848461128d565b611a6e84848484612040565b611aad576040517f08c379a0000000000000000000000000000000000000000000000000000000008152600401611aa49061322d565b60405180910390fd5b50505050565b606060405180602001604052806000815250905090565b60606000821415611b12576040518060400160405280600181526020017f30000000000000000000000000000000000000000000000000000000000000008152509050611c72565b600082905060005b60008214611b44578080611b2d9061378f565b915050600a82611b3d9190613642565b9150611b1a565b60008167ffffffffffffffff811115611b86577f4e487b7100000000000000000000000000000000000000000000000000000000600052604160045260246000fd5b6040519080825280601f01601f191660200182016040528015611bb85781602001600182028036833780820191505090505b5090505b60008514611c6b57600182611bd19190613673565b9150600a85611be091906137d8565b6030611bec91906135ec565b60f81b818381518110611c28577f4e487b7100000000000000000000000000000000000000000000000000000000600052603260045260246000fd5b60200101907effffffffffffffffffffffffffffffffffffffffffffffffffffffffffffff1916908160001a905350600a85611c649190613642565b9450611bbc565b8093505050505b919050565b505050565b6000611c8782610a58565b9050611c9581600084611c77565b611ca06000836110f6565b6001600360008373ffffffffffffffffffffffffffffffffffffffff1673ffffffffffffffffffffffffffffffffffffffff1681526020019081526020016000206000828254611cf09190613673565b925050819055506002600083815260200190815260200160002060006101000a81549073ffffffffffffffffffffffffffffffffffffffff021916905581600073ffffffffffffffffffffffffffffffffffffffff168273ffffffffffffffffffffffffffffffffffffffff167fddf252ad1be2c89b69c2b068fc378daa952ba7f163c4a11628f55a4df523b3ef60405160405180910390a45050565b505050565b8273ffffffffffffffffffffffffffffffffffffffff16611db282610d9f565b73ffffffffffffffffffffffffffffffffffffffff161480611e0757508273ffffffffffffffffffffffffffffffffffffffff16611def82610a58565b73ffffffffffffffffffffffffffffffffffffffff16145b611e46576040517f08c379a0000000000000000000000000000000000000000000000000000000008152600401611e3d906133ad565b60405180910390fd5b600073ffffffffffffffffffffffffffffffffffffffff168273ffffffffffffffffffffffffffffffffffffffff161415611eb6576040517f08c379a0000000000000000000000000000000000000000000000000000000008152600401611ead9061326d565b60405180910390fd5b6000611ec182610d9f565b9050611ece818484611d8d565b611ee1611ed96110ee565b6000846115b6565b6001600760008373ffffffffffffffffffffffffffffffffffffffff1673ffffffffffffffffffffffffffffffffffffffff1681526020019081526020016000206000828254611f319190613673565b925050819055506001600760008573ffffffffffffffffffffffffffffffffffffffff1673ffffffffffffffffffffffffffffffffffffffff1681526020019081526020016000206000828254611f8891906135ec565b92505081905550826006600084815260200190815260200160002060006101000a81548173ffffffffffffffffffffffffffffffffffffffff021916908373ffffffffffffffffffffffffffffffffffffffff1602179055507f639e74af80ca94f0f311b0c8c8c9d95cc5c8a5142f5afb7a6a24e283e2936bf48184846040516120149392919061314d565b60405180910390a150505050565b61203c8282604051806020016040528060008152506121d7565b5050565b60006120618473ffffffffffffffffffffffffffffffffffffffff16612232565b156121ca578373ffffffffffffffffffffffffffffffffffffffff1663150b7a0261208a6110ee565b8786866040518563ffffffff1660e01b81526004016120ac9493929190613184565b602060405180830381600087803b1580156120c657600080fd5b505af19250505080156120f757506040513d601f19601f820116820180604052508101906120f491906126b4565b60015b61217a573d8060008114612127576040519150601f19603f3d011682016040523d82523d6000602084013e61212c565b606091505b50600081511415612172576040517f08c379a00000000000000000000000000000000000000000000000000000000081526004016121699061322d565b60405180910390fd5b805181602001fd5b63150b7a0260e01b7bffffffffffffffffffffffffffffffffffffffffffffffffffffffff1916817bffffffffffffffffffffffffffffffffffffffffffffffffffffffff1916149150506121cf565b600190505b949350505050565b6121e18383612245565b6121ee6000848484612040565b61222d576040517f08c379a00000000000000000000000000000000000000000000000000000000081526004016122249061322d565b60405180910390fd5b505050565b600080823b905060008111915050919050565b600073ffffffffffffffffffffffffffffffffffffffff168273ffffffffffffffffffffffffffffffffffffffff1614156122b5576040517f08c379a00000000000000000000000000000000000000000000000000000000081526004016122ac906133ed565b60405180910390fd5b6122be81611082565b156122fe576040517f08c379a00000000000000000000000000000000000000000000000000000000081526004016122f59061324d565b60405180910390fd5b61230a60008383611c77565b6001600360008473ffffffffffffffffffffffffffffffffffffffff1673ffffffffffffffffffffffffffffffffffffffff168152602001908152602001600020600082825461235a91906135ec565b92505081905550816002600083815260200190815260200160002060006101000a81548173ffffffffffffffffffffffffffffffffffffffff021916908373ffffffffffffffffffffffffffffffffffffffff160217905550808273ffffffffffffffffffffffffffffffffffffffff16600073ffffffffffffffffffffffffffffffffffffffff167fddf252ad1be2c89b69c2b068fc378daa952ba7f163c4a11628f55a4df523b3ef60405160405180910390a45050565b600061242661242184613579565b613548565b90508281526020810184848401111561243e57600080fd5b61244984828561371b565b509392505050565b600081359050612460816138d6565b92915050565b600081359050612475816138ed565b92915050565b60008135905061248a81613904565b92915050565b60008151905061249f81613904565b92915050565b600082601f8301126124b657600080fd5b81356124c6848260208601612413565b91505092915050565b6000813590506124de8161391b565b92915050565b6000602082840312156124f657600080fd5b600061250484828501612451565b91505092915050565b6000806040838503121561252057600080fd5b600061252e85828601612451565b925050602061253f85828601612451565b9150509250929050565b60008060006060848603121561255e57600080fd5b600061256c86828701612451565b935050602061257d86828701612451565b925050604061258e868287016124cf565b9150509250925092565b600080600080608085870312156125ae57600080fd5b60006125bc87828801612451565b94505060206125cd87828801612451565b93505060406125de878288016124cf565b925050606085013567ffffffffffffffff8111156125fb57600080fd5b612607878288016124a5565b91505092959194509250565b6000806040838503121561262657600080fd5b600061263485828601612451565b925050602061264585828601612466565b9150509250929050565b6000806040838503121561266257600080fd5b600061267085828601612451565b9250506020612681858286016124cf565b9150509250929050565b60006020828403121561269d57600080fd5b60006126ab8482850161247b565b91505092915050565b6000602082840312156126c657600080fd5b60006126d484828501612490565b91505092915050565b6000602082840312156126ef57600080fd5b60006126fd848285016124cf565b91505092915050565b61270f816136a7565b82525050565b61271e816136b9565b82525050565b600061272f826135a9565b61273981856135bf565b935061274981856020860161372a565b612752816138c5565b840191505092915050565b6000612768826135b4565b61277281856135d0565b935061278281856020860161372a565b61278b816138c5565b840191505092915050565b60006127a1826135b4565b6127ab81856135e1565b93506127bb81856020860161372a565b80840191505092915050565b60006127d4601e836135d0565b91507f455243583a20617070726f76616c20746f2063757272656e74207573657200006000830152602082019050919050565b60006128146032836135d0565b91507f4552433732313a207472616e7366657220746f206e6f6e20455243373231526560008301527f63656976657220696d706c656d656e74657200000000000000000000000000006020830152604082019050919050565b600061287a601c836135d0565b91507f4552433732313a20746f6b656e20616c7265616479206d696e746564000000006000830152602082019050919050565b60006128ba6022836135d0565b91507f455243583a207472616e7366657220746f20746865207a65726f20616464726560008301527f73730000000000000000000000000000000000000000000000000000000000006020830152604082019050919050565b60006129206028836135d0565b91507f455243583a2062616c616e636520717565727920666f7220746865207a65726f60008301527f20616464726573730000000000000000000000000000000000000000000000006020830152604082019050919050565b60006129866024836135d0565b91507f4552433732313a207472616e7366657220746f20746865207a65726f2061646460008301527f72657373000000000000000000000000000000000000000000000000000000006020830152604082019050919050565b60006129ec6019836135d0565b91507f4552433732313a20617070726f766520746f2063616c6c6572000000000000006000830152602082019050919050565b6000612a2c602a836135d0565b91507f455243583a206f70657261746f7220717565727920666f72206e6f6e6578697360008301527f74656e7420746f6b656e000000000000000000000000000000000000000000006020830152604082019050919050565b6000612a92602c836135d0565b91507f4552433732313a206f70657261746f7220717565727920666f72206e6f6e657860008301527f697374656e7420746f6b656e00000000000000000000000000000000000000006020830152604082019050919050565b6000612af86037836135d0565b91507f455243583a207472616e736665722063616c6c6572206973206e6f742075736560008301527f72206f72206f776e6572206e6f7220617070726f7665640000000000000000006020830152604082019050919050565b6000612b5e6038836135d0565b91507f4552433732313a20617070726f76652063616c6c6572206973206e6f74206f7760008301527f6e6572206e6f7220617070726f76656420666f7220616c6c00000000000000006020830152604082019050919050565b6000612bc4602a836135d0565b91507f4552433732313a2062616c616e636520717565727920666f7220746865207a6560008301527f726f2061646472657373000000000000000000000000000000000000000000006020830152604082019050919050565b6000612c2a6029836135d0565b91507f4552433732313a206f776e657220717565727920666f72206e6f6e657869737460008301527f656e7420746f6b656e00000000000000000000000000000000000000000000006020830152604082019050919050565b6000612c906027836135d0565b91507f455243583a207472616e73666572206f6620746f6b656e20746861742069732060008301527f6e6f7420757365000000000000000000000000000000000000000000000000006020830152604082019050919050565b6000612cf6602a836135d0565b91507f455243583a20617070726f76656420717565727920666f72206e6f6e6578697360008301527f74656e7420746f6b656e000000000000000000000000000000000000000000006020830152604082019050919050565b6000612d5c6020836135d0565b91507f4552433732313a206d696e7420746f20746865207a65726f20616464726573736000830152602082019050919050565b6000612d9c602c836135d0565b91507f4552433732313a20617070726f76656420717565727920666f72206e6f6e657860008301527f697374656e7420746f6b656e00000000000000000000000000000000000000006020830152604082019050919050565b6000612e026036836135d0565b91507f455243583a20617070726f76652063616c6c6572206973206e6f74206f776e6560008301527f72206e6f7220617070726f76656420666f7220616c6c000000000000000000006020830152604082019050919050565b6000612e686029836135d0565b91507f4552433732313a207472616e73666572206f6620746f6b656e2074686174206960008301527f73206e6f74206f776e00000000000000000000000000000000000000000000006020830152604082019050919050565b6000612ece602f836135d0565b91507f4552433732314d657461646174613a2055524920717565727920666f72206e6f60008301527f6e6578697374656e7420746f6b656e00000000000000000000000000000000006020830152604082019050919050565b6000612f34602f836135d0565b91507f455243583a207472616e736665722063616c6c6572206973206e6f74206f776e60008301527f6572206e6f7220617070726f76656400000000000000000000000000000000006020830152604082019050919050565b6000612f9a6021836135d0565b91507f4552433732313a20617070726f76616c20746f2063757272656e74206f776e6560008301527f72000000000000000000000000000000000000000000000000000000000000006020830152604082019050919050565b60006130006031836135d0565b91507f4552433732313a207472616e736665722063616c6c6572206973206e6f74206f60008301527f776e6572206e6f7220617070726f7665640000000000000000000000000000006020830152604082019050919050565b6000613066601e836135d0565b91507f455243583a206d696e7420746f20746865207a65726f206164647265737300006000830152602082019050919050565b60006130a66026836135d0565b91507f455243583a207573657220717565727920666f72206e6f6e6578697374656e7460008301527f20746f6b656e00000000000000000000000000000000000000000000000000006020830152604082019050919050565b61310881613711565b82525050565b600061311a8285612796565b91506131268284612796565b91508190509392505050565b60006020820190506131476000830184612706565b92915050565b60006060820190506131626000830186612706565b61316f6020830185612706565b61317c60408301846130ff565b949350505050565b60006080820190506131996000830187612706565b6131a66020830186612706565b6131b360408301856130ff565b81810360608301526131c58184612724565b905095945050505050565b60006020820190506131e56000830184612715565b92915050565b60006020820190508181036000830152613205818461275d565b905092915050565b60006020820190508181036000830152613226816127c7565b9050919050565b6000602082019050818103600083015261324681612807565b9050919050565b600060208201905081810360008301526132668161286d565b9050919050565b60006020820190508181036000830152613286816128ad565b9050919050565b600060208201905081810360008301526132a681612913565b9050919050565b600060208201905081810360008301526132c681612979565b9050919050565b600060208201905081810360008301526132e6816129df565b9050919050565b6000602082019050818103600083015261330681612a1f565b9050919050565b6000602082019050818103600083015261332681612a85565b9050919050565b6000602082019050818103600083015261334681612aeb565b9050919050565b6000602082019050818103600083015261336681612b51565b9050919050565b6000602082019050818103600083015261338681612bb7565b9050919050565b600060208201905081810360008301526133a681612c1d565b9050919050565b600060208201905081810360008301526133c681612c83565b9050919050565b600060208201905081810360008301526133e681612ce9565b9050919050565b6000602082019050818103600083015261340681612d4f565b9050919050565b6000602082019050818103600083015261342681612d8f565b9050919050565b6000602082019050818103600083015261344681612df5565b9050919050565b6000602082019050818103600083015261346681612e5b565b9050919050565b6000602082019050818103600083015261348681612ec1565b9050919050565b600060208201905081810360008301526134a681612f27565b9050919050565b600060208201905081810360008301526134c681612f8d565b9050919050565b600060208201905081810360008301526134e681612ff3565b9050919050565b6000602082019050818103600083015261350681613059565b9050919050565b6000602082019050818103600083015261352681613099565b9050919050565b600060208201905061354260008301846130ff565b92915050565b6000604051905081810181811067ffffffffffffffff8211171561356f5761356e613896565b5b8060405250919050565b600067ffffffffffffffff82111561359457613593613896565b5b601f19601f8301169050602081019050919050565b600081519050919050565b600081519050919050565b600082825260208201905092915050565b600082825260208201905092915050565b600081905092915050565b60006135f782613711565b915061360283613711565b9250827fffffffffffffffffffffffffffffffffffffffffffffffffffffffffffffffff0382111561363757613636613809565b5b828201905092915050565b600061364d82613711565b915061365883613711565b92508261366857613667613838565b5b828204905092915050565b600061367e82613711565b915061368983613711565b92508282101561369c5761369b613809565b5b828203905092915050565b60006136b2826136f1565b9050919050565b60008115159050919050565b60007fffffffff0000000000000000000000000000000000000000000000000000000082169050919050565b600073ffffffffffffffffffffffffffffffffffffffff82169050919050565b6000819050919050565b82818337600083830152505050565b60005b8381101561374857808201518184015260208101905061372d565b83811115613757576000848401525b50505050565b6000600282049050600182168061377557607f821691505b6020821081141561378957613788613867565b5b50919050565b600061379a82613711565b91507fffffffffffffffffffffffffffffffffffffffffffffffffffffffffffffffff8214156137cd576137cc613809565b5b600182019050919050565b60006137e382613711565b91506137ee83613711565b9250826137fe576137fd613838565b5b828206905092915050565b7f4e487b7100000000000000000000000000000000000000000000000000000000600052601160045260246000fd5b7f4e487b7100000000000000000000000000000000000000000000000000000000600052601260045260246000fd5b7f4e487b7100000000000000000000000000000000000000000000000000000000600052602260045260246000fd5b7f4e487b7100000000000000000000000000000000000000000000000000000000600052604160045260246000fd5b6000601f19601f8301169050919050565b6138df816136a7565b81146138ea57600080fd5b50565b6138f6816136b9565b811461390157600080fd5b50565b61390d816136c5565b811461391857600080fd5b50565b61392481613711565b811461392f57600080fd5b5056fea264697066735822122099ad63ab32518f4045c0106db9aea892bb57079260c01f30dcebb535075d52e264736f6c63430008000033",
  "linkReferences": {},
  "deployedLinkReferences": {}
}